:020000040800F2
:1000000000C00020D52900081D0700081F070008B0
:10001000210700082307000825070008000000004A
:10002000000000000000000000000000270700089A
:1000300029070008000000002B0700082D07000812
:10004000252A0008252A0008252A0008252A000854
:10005000252A0008252A0008252A0008252A000844
:10006000252A0008252A0008252A0008252A000834
:10007000252A0008252A0008252A0008252A000824
:10008000252A0008252A0008252A0008252A000814
:10009000252A0008252A0008252A0008252A000804
:1000A000252A0008252A0008252A0008252A0008F4
:1000B000252A00080000000000000000252A000892
:1000C000252A00080000000000000000252A000882
:1000D00000000000252A0008252A00080000000072
:1000E000252A0008252A0008000000000000000062
:1000F0000000000000000000000000000000000000
:10010000000000000000000000000000252A000898
:100110000000000000000000252A0008252A000831
:10012000252A0008252A0008252A0008252A000873
:10013000252A000800000000000000000000000068
:10014000252A0008252A0008252A0008252A000853
:10015000252A0008252A0008252A0008252A000843
:10016000252A0008252A0008252A0008000000008A
:10017000252A0008252A00080000000000000000D1
:10018000252A0008252A0008252A0008000000006A
:100190000348044B834202D0034B03B11847704716
:1001A0001000002010000020000000000548064B51
:1001B0001B1AD90F01EBA301491002D0034B03B165
:1001C00018477047100000201000002000000000B9
:1001D00010B5064C237843B9FFF7DAFF044B13B18F
:1001E0000448AFF300800123237010BD10000020ED
:1001F00000000000802A000808B5054B1BB1054926
:100200000548AFF30080BDE80840FFF7CFBF00BF4F
:100210000000000014000020802A000872B6FEE7EB
:1002200000B597B04422002105A802F0FCFB002392
:10023000009301930293039304934FF4007001F031
:10024000D5FDD0B91023059301230B9300230C9304
:1002500060220D920F9305A800F092FE78B90F234B
:10026000009300210191029103910491684601F0ED
:10027000BDF930B917B05DF804FBFFF7CFFFFFF70A
:10028000CDFFFFF7CBFF08B500F0BCFDFFF7C8FFBF
:1002900000F00AF800F03AF800F0CAF800F062F94D
:1002A00000F0DCF9FEE7000070B588B003AD002473
:1002B00003940494059406940794124BDA6C42F06C
:1002C0000102DA64DA6C02F001020192019ADA6C3E
:1002D00042F00202DA64DB6C03F002030293029B39
:1002E000094E22461821304601F072FD182303936F
:1002F00001230493059406942946304601F090FCAE
:1003000008B070BD001002400004004800B587B07E
:1003100000230093019302930393049305931948D8
:10032000194A026043608360C36003610422426132
:10033000037643760122C26180F820308362C36273
:1003400080F83030436380F8383000F039FA90B9E3
:100350000E4B009306230193002302937F22039206
:100360000422049205936946064800F00DFB28B963
:1003700007B05DF804FBFFF751FFE9E7FFF74EFF19
:10038000F6E700BF2C000020000004502000F0140D
:1003900010B59CB0044600211791189119911A913B
:1003A0001B91542202A802F03EFB22681E4B9A4287
:1003B00001D01CB010BD4FF4804302934FF0805326
:1003C00014930123039304931023059307230693A7
:1003D0000223079308934FF08073099302A801F05A
:1003E000ABFAF0B9114BDA6C42F40052DA64DA6C11
:1003F00002F400520092009ADA6C42F00102DA64D0
:10040000DB6C03F001030193019B012317930B2382
:1004100018930023199317A94FF0904001F000FCA6
:10042000C7E7FFF7FBFEDDE70000045000100240C5
:1004300008B51048104B03604FF4827343600023EB
:1004400083604FF44072C260036143614FF40072F5
:100450008261C3610362436283620722C2620363F3
:100460000823436301F074FD00B908BDFFF7D6FE11
:10047000FBE700BF900000200030014000B589B0CC
:100480000023039304930593069307930268144B88
:100490009A4202D009B05DF804FB03F560431A6E7E
:1004A00042F480521A661A6E02F480520192019A46
:1004B000DA6C42F00102DA64DB6C03F001030293B0
:1004C000029BE02303930223049303230693052353
:1004D000079303A94FF0904001F0A2FBDAE700BFB9
:1004E000003001400268094B9A4200D0704782B048
:1004F00003F564431A6E42F400621A661B6E03F43D
:1005000000630193019B02B0704700BF002C0140C3
:1005100000B587B0002301930293039304930593DE
:1005200002680F4B9A4202D007B05DF804FB03F556
:100530006443DA6C42F00102DA64DB6C03F001031D
:100540000093009B4FF480730193022302930123D5
:10055000059301A94FF0904001F062FBE4E700BF72
:10056000002C014010B59AB00024169417941894EA
:1005700019941394149415940C940D940E940F9450
:100580001094119412942C22214601A802F04BFAE7
:100590003048314B03600323436084604FF6FF73A0
:1005A000C36004614461846101F0B0FE00283FD162
:1005B0004FF48053169316A9264801F0EBFF00284C
:1005C00039D1244801F0D2FE002837D100231393FB
:1005D0001493159313A91F4802F05CF8002830D13A
:1005E00060230C9300220D920E920F9210921192A2
:1005F00012920CA9174801F023FF28BB0023019396
:1006000002930393049305934FF4005206920793C9
:1006100008934FF0007209920A930B9301A90D48B9
:1006200002F070F898B90B48FFF772FF1AB010BDCE
:10063000FFF7F4FDBCE7FFF7F1FDC2E7FFF7EEFDC2
:10064000C4E7FFF7EBFDCBE7FFF7E8FDD6E7FFF7E1
:10065000E5FDE8E7F4000020002C014008B50B4858
:100660000B4B03604FF4E133436000238360C360AE
:1006700003610C2242618361C361036202F072F97B
:1006800000B908BDFFF7CAFDFBE700BF400100202D
:100690000044004010B59CB0044600211791189109
:1006A00019911A911B91542202A802F0BCF92268F8
:1006B000184B9A4201D01CB010BD0223029302A82D
:1006C00001F03AF910BB144B9A6D42F400329A656E
:1006D0009A6D02F400320092009ADA6C42F0010244
:1006E000DA64DB6C03F001030193019B1C23179375
:1006F000022318930023199303231A9307231B93B0
:1007000017A94FF0904001F08BFAD4E7FFF786FD70
:10071000D9E700BF0044004000100240FEE7FEE7BA
:10072000FEE7FEE7FEE770477047704708B500F048
:1007300079FB08BD82B00A4B1A6E42F001021A66BC
:100740001A6E02F001020092009A9A6D42F08052F5
:100750009A659B6D03F080530193019B02B0704733
:100760000010024010B430300B0A9B0003F00C0361
:10077000C45801F01F014FF01F0C0CFA01FC24EAD1
:100780000C0CC2F384628A404CEA0202C2505DF84B
:10079000044B704710B414304B0E9B0003F004035D
:1007A000C458C1F304514FF0070C0CFA01FC24EAC1
:1007B0000C0C8A404CEA0202C2505DF8044B7047B0
:1007C00030B583B000230193002800F0D0800446A8
:1007D000436D13B323689A6812F0005F05D09A68DE
:1007E00022F0204222F03F029A602268936813F0C0
:1007F000805F1FD1936823F0104323F03F0343F041
:10080000805393605B4B1B689B095B4AA2FB0323ED
:100810009B0901335B00019309E0FFF7B9FD002359
:10082000A36584F85030D5E7019B013B0193019B00
:10083000002BF9D12268936813F0805F70D1636D4B
:1008400043F010036365A36D43F00103A36501202A
:10085000936813F0040300D00123616D11F0100FB1
:100860007ED1002B7CD1636D23F4817343F00203AE
:100870006365936813F0010F0BD1404B9B6813F035
:10088000010F06D163683E498A6822F47C12134343
:100890008B60627E636B43EA4233E2681343A26873
:1008A000134394F8202043EA0243012A3AD0A26A73
:1008B00022B102F47072E16A0A4313432168CD68E1
:1008C000304A2A401A43CA602268936813F008032A
:1008D00000D00123ABB9237E94F83010490041EADF
:1008E0008331D36823F4804323F002030B43D360A6
:1008F00094F83830012B1AD02268136923F00103D1
:1009000013612369012B22D02268136B23F00F039C
:100910001363636D23F0030343F00103636524E075
:10092000002095E7626A013A43EA4243BFE7216843
:100930000B696FF38A03E26B256C2A43656C2A43CB
:10094000A56C2A43134343F001030B61D9E72168E7
:100950000B6B23F00F03E269013A13430B63D8E7F3
:10096000636D43F010036365012003B030BD0120C7
:10097000FBE700BF08000020632D3E050000045087
:100980000003045007C0F0FFF0B583B000230193CB
:1009900090F85030012B00F0038204460D460123ED
:1009A00080F850300068836813F0040F09D0636D3D
:1009B00043F0200363650120002384F8503003B026
:1009C000F0BD4968052907D8023903294ED8DFE868
:1009D00001F0024F484A0C212A68FFF7C3FE206845
:1009E000836813F0040300D00123826812F0080228
:1009F00000D001220BB9002A3CD02268936813F082
:100A0000010F17D12B68E868D2F8B010C3F31206B3
:100A100021EA060100F0180CA84820FA0CF0034067
:100A2000C3F312030B43C2F8B030EA68A44B9A42F6
:100A300000F0A5802B68A34A134200F0AD81A24AC2
:100A4000926802F0E070A1498B4200F05881A04901
:100A50008B4200F07A819F498B4200F08A8100200E
:100A6000AAE71821B8E74FF48071B5E70621B3E78C
:100A70001221B1E7AA682968FFF78CFE696922682C
:100A8000D368C3F3C1035B009940286904280ED0E2
:100A90002E68603252F820708F4B3B4006F0F846CB
:100AA00031430B4343F0004342F82030A5E7136E77
:100AB000116EC1F384612B68C3F3120080BBC3F3D2
:100AC0008463994234D021684B6E4A6EC2F38462CB
:100AD0002B68C3F3120080BBC3F384639A4234D003
:100AE00021688B6E8A6EC2F384622B68C3F3120096
:100AF00080BBC3F384639A4234D02168CB6ECA6E44
:100B0000C2F384622B68C3F3120080BBC3F3846317
:100B10009A427FF472AFCB6E23F00043CB666CE752
:100B200093FAA3F313B1B3FA83F3CAE72023C8E718
:100B3000136E23F000431366C5E793FAA3F313B1D2
:100B4000B3FA83F3CAE72023C8E74B6E23F00043D0
:100B50004B66C5E793FAA3F313B1B3FA83F3CAE77D
:100B60002023C8E78B6E23F000438B66C5E793FA1A
:100B7000A3F313B1B3FA83F3CAE72023C8E72068CD
:100B80002B68C3F312063EBB9A0E013202F01F021D
:100B9000092A8CBF00220122002A55D05EBB990E83
:100BA0000131890601F0F8418EBB4FEA936C0CF1DC
:100BB000010C0CF01F0C012202FA0CF21143AEBB27
:100BC0009B0E013303F01F0303EB43031B05194383
:100BD000AA68FFF7DFFD2DE793FAA3F24AB1B2FA54
:100BE00082F2013202F01F02092A8CBF0022012288
:100BF000D2E72022F5E793FAA3F131B1B1FA81F1FE
:100C00000131890601F0F841CEE72021F8E793FA97
:100C1000A3F24AB1B2FA82F2013202F01F024FF09F
:100C2000010C0CFA02F2C9E72022F5E793FAA3F3CC
:100C300043B1B3FA83F3013303F01F0303EB430320
:100C40001B05C4E72023F6E7E6B9990E01318906B2
:100C500001F0F84116BB4FEA936C0CF1010C0CF05B
:100C60001F0C012202FA0CF21143BEBB9B0E013392
:100C700003F01F0303EB43031E3B1B0543F000730C
:100C80001943A5E793FAA3F131B1B1FA81F101312A
:100C9000890601F0F841DDE72021F8E793FAA3F295
:100CA0004AB1B2FA82F2013202F01F024FF0010C97
:100CB0000CFA02F2D8E72022F5E700BFFFFF070099
:100CC00000007F400000088000030450000052C76D
:100CD000000084CB0100008000F0FF0393FAA3F32F
:100CE0005BB1B3FA83F3013303F01F0303EB430358
:100CF0001E3B1B0543F00073C2E72023F3E712F409
:100D0000000F7FF4A4AE2268264B9A4201D0002047
:100D100052E640F4000324498A6822F0E07213434B
:100D20008B60224B1B689B09214AA2FB03239B0972
:100D3000013303EB43039B000193019B1BB1019B18
:100D4000013B0193F9E7002036E612F0807F7FF443
:100D500082AE2268134B9A4201D000202CE640F06C
:100D6000807311498A6822F0E07213438B6000207F
:100D700022E612F4800F11D122680A4B9A4201D068
:100D8000002019E640F4800307498A6822F0E072E7
:100D900013438B6000200FE600200DE600200BE6D9
:100DA00002200CE60000045000030450080000205C
:100DB000632D3E05104B1B780BB90120704710B511
:100DC00004464FF47A70B0FBF3F30C4A1068B0FBA2
:100DD000F3F001F0A9F868B90F2C01D901200AE05D
:100DE000002221464FF0FF3001F08EF8044B1C60CA
:100DF000002000E0012010BD0000002008000020BD
:100E00000400002010B5032001F06CF80F20FFF75C
:100E1000D1FF10B10124204610BD0446FFF78AFC23
:100E2000F9E70000034B1B78034A11680B44136079
:100E3000704700BF0000002090010020014B18689F
:100E4000704700BF9001002030B583B00446204BAE
:100E50009B6D13F0805F0BD000F0C0FFB0F5007FFA
:100E600017D0802C1FD82DD0702C2DD000211BE046
:100E7000174DAB6D43F08053AB65AB6D03F0805302
:100E80000193019B00F0AAFFAB6D23F08053AB658B
:100E9000E4E7802C03D9A02C03D9022104E000212F
:100EA00002E0012100E003210A4A136823F007034E
:100EB0000B431360136803F007038B4206D1002035
:100EC00003B030BD0221EFE70121EDE70120F7E794
:100ED0000010024000200240254A9368D26802F0C8
:100EE000030213F00C0309D00C2B05D0042B3BD0CC
:100EF000082B3BD000200FE0012AF7D11C4A1268D2
:100F000012F0080F0CD11A4AD2F89420C2F303222F
:100F1000184951F8220013B10C2B06D0002070475D
:100F2000134A1268C2F30312F2E7114BDB6803F0B5
:100F30000303022B16D0032B00D10F480C49CA68BB
:100F4000C2F302120132CB68C3F3062300FB03F3A2
:100F5000B3FBF2F3C868C0F3416001304000B3FB5B
:100F6000F0F070470548E9E70448704702487047C9
:100F700000100240982A000800127A000024F400B1
:100F8000002800F01C83F0B583B00446964B9D68A2
:100F900005F00C05DE6806F00306036813F0100F79
:100FA0005AD0E5B10C2D18D0A369002B00F0BB80FE
:100FB0008D4A136843F001031360FFF73FFF0746B4
:100FC000894B1B6813F0020F40F09A80FFF736FF41
:100FD000C01B0228F4D90320FCE2012EE4D1824B8D
:100FE0001B6813F0020F03D0A369002B00F0E98205
:100FF000206A7D4B1B6813F0080F5BD07A4B1B688F
:1010000003F0F00398425CD8774B1A6842F008026C
:101010001A601A6822F0F002216A0A431A605A68BC
:1010200022F47F42E16942EA01225A60002D60D039
:10103000FFF752FF6C4B9B68C3F303136B4AD35CFF
:1010400003F01F03D8406A4B18606A4B1868FFF71B
:10105000B1FE002840F0BE82236813F0010F00F0BB
:101060008180082D75D00C2D71D06368B3F5803F59
:1010700000F09780B3F5A02F00F099805A4B1A68C2
:1010800022F480321A601A6822F480221A6063689F
:10109000002B00F09980FFF7D1FE0746524B1B68EA
:1010A00013F4003F5ED1FFF7C9FEC01B6428F5D9D9
:1010B00003208FE24C4BD3F894301B0903F0F0036C
:1010C000A0E7FFF7C1FE002840F07D82464B1A687A
:1010D00042F008021A601A6822F0F002216A0A43FC
:1010E0001A605A6822F47F42E16942EA01225A609A
:1010F0009EE7206AFFF7A8FE002899D0012069E248
:10110000394B1A6842F008021A601A6822F0F0029D
:10111000216A0A431A605A6822F47F42E16942EA6E
:1011200001225A6098E7304A136823F001031360E4
:10113000FFF784FE07462C4B1B6813F0020F8BD081
:10114000FFF77CFEC01B0228F5D9032042E2032EE4
:101150008BD1254B1B6813F4003F03D06368002B31
:1011600000F03382236813F0020F58D0042D45D0CD
:101170000C2D41D0E368002B77D01B4A136843F451
:1011800080731360FFF75AFE0646174B1B6813F473
:10119000806F61D1FFF752FE801B0228F5D9032032
:1011A00018E2114A136843F4803313606FE703F1C8
:1011B0008043A3F53C331A6842F480221A601A680F
:1011C00042F480321A6062E7FFF738FE0746064BAA
:1011D0001B6813F4003FC5D0FFF730FEC01B642826
:1011E000F5D90320F6E100BF00100240D02A000824
:1011F0000800002004000020022EBBD1A44B1B6875
:1012000013F4806F03D0E368002B00F0E081A04A64
:10121000536823F0F853216943EA0163536023685C
:1012200013F0080F4CD063699BB3994AD2F89430FD
:1012300043F00103C2F89430FFF700FE0646944BDA
:10124000D3F8943013F0020F3AD1FFF7F7FD801B6B
:101250000228F4D90320BDE18D4A536823F0F853E6
:10126000216943EA01635360D9E7894A136823F48B
:1012700080731360FFF7E2FD0646854B1B6813F48D
:10128000806FCCD0FFF7DAFD801B0228F5D9032050
:10129000A0E17F4AD2F8943023F00103C2F89430E1
:1012A000FFF7CCFD06467A4BD3F8943013F0020FCB
:1012B00006D0FFF7C3FD801B0228F4D9032089E183
:1012C000236813F0040F7AD0714B9B6D13F0805F8D
:1012D00036D16F4B9A6D42F080529A659B6D03F048
:1012E00080530193019B01266A4B1B6813F4807F96
:1012F00028D0A368012B39D0052B3FD0644BD3F8FD
:10130000902022F00102C3F89020D3F8902022F020
:101310000402C3F89020A368002B3DD0FFF78EFD98
:1013200007465B4BD3F8903013F0020F46D1FFF71E
:1013300085FDC01B41F288339842F2D9032049E170
:101340000026D1E7534A136843F480731360FFF714
:1013500075FD07464F4B1B6813F4807FC9D1FFF71B
:101360006DFDC01B0228F5D9032033E1484AD2F8AD
:10137000903043F00103C2F89030CCE7444BD3F8EF
:10138000902042F00402C3F89020D3F8902042F05D
:101390000102C3F89020BEE7FFF750FD07463C4B23
:1013A000D3F8903013F0020F08D0FFF747FDC01BB1
:1013B00041F288339842F2D903200BE1E6B9236861
:1013C00013F0200F35D0636AE3B1314AD2F8983078
:1013D00043F00103C2F89830FFF730FD06462C4B6E
:1013E000D3F8983013F0020F23D1FFF727FD801BAD
:1013F0000228F4D90320EDE0254A936D23F08053B1
:101400009365DCE7224AD2F8983023F00103C2F852
:101410009830FFF713FD06461D4BD3F8983013F0B4
:10142000020F06D0FFF70AFD801B0228F4D9032023
:10143000D0E0A36A002B00F0CC80022B17D00C2D3B
:1014400000F0CC80124A136823F080731360FFF71A
:10145000F5FC04460E4B1B6813F0007F00F0A880DB
:10146000FFF7ECFC001B0228F4D90320B2E0084B84
:10147000DB6803F00301E26A91420DD00C2D00F00D
:10148000AB80034B1B6813F0806F2FD00120A1E0CD
:10149000001002400070004003F07002216B01391F
:1014A000B2EB011FEAD103F4FE42616BB2EB012FF4
:1014B000E4D103F07842A16BB2EBC16FDED103F44B
:1014C000C001E26B5208013AB1EB425FD6D103F0A2
:1014D000C063226C5208013AB3EB426FCED1404B4D
:1014E0001B6813F0007F49D0002073E03C4A13686A
:1014F00023F080731360FFF7A1FC0546384B1B688F
:1015000013F0007F06D0FFF799FC401B0228F5D9A5
:1015100003205FE0324AD36832491940E36A206B06
:10152000013843EA0013606B43EA0023E06B400894
:10153000013843EA4053206C4008013843EA4063D5
:10154000A06B43EAC0631943D160136843F0807312
:101550001360D36843F08073D360FFF76FFC0446D9
:101560001F4B1B6813F0007F06D1FFF767FC001BC1
:101570000228F5D903202DE000202BE0184B1A6833
:1015800042F080721A60DA6842F08072DA60FFF727
:1015900055FC0446124B1B6813F0007F06D1FFF781
:1015A0004DFC031B022BF5D9032013E0002011E0B2
:1015B0000B4AD1680C4B0B40D36000200AE001209D
:1015C0007047012006E0012004E0012002E0012034
:1015D00000E0002003B0F0BD0120FBE70120F9E7A7
:1015E000001002408C809D01FCFFEEFE002800F000
:1015F000AF8070B50D460446594B1B6803F00703D6
:101600008B420BD2564A136823F007030B43136037
:10161000136803F007038B4240F09C80236813F0AB
:10162000020F0CD0A2684F4B9B6803F0F0039A4264
:1016300005D94C498B6823F0F0031A438A6023686C
:1016400013F0010F39D06368032B09D0022B26D089
:1016500063BB444A126812F0020F06D1012076E003
:10166000404A126812F0007F76D03E498A6822F024
:10167000030213438B60FFF7E1FB0646394B9B687F
:1016800003F00C036268B3EB820F16D0FFF7D6FBB2
:10169000801B41F288339842F0D9032057E0314A49
:1016A000126812F4003FE0D1012050E02D4A126888
:1016B00012F4806FD9D1012049E0236813F0020FA2
:1016C0000CD0A268274B9B6803F0F0039A4205D226
:1016D00024498B6823F0F0031A438A60204B1B686F
:1016E00003F00703AB420AD91D4A136823F007032E
:1016F0002B431360136803F00703AB422ED123681A
:1017000013F0040F06D0174A936823F4E063E168EE
:101710000B439360236813F0080F07D0114A9368B6
:1017200023F46053216943EAC1039360FFF7D4FBBC
:101730000C4B9B68C3F303130B4AD35C03F01F03EA
:10174000D8400A4B18600A4B1868FFF733FB70BD8E
:10175000012070470120FAE70120F8E70120F6E7B1
:101760000020024000100240D02A0008080000209B
:1017700004000020014B1868704700BF08000020DB
:1017800008B5FFF7F7FF054B9B68C3F30223044A34
:10179000D35C03F01F03D84008BD00BF0010024017
:1017A000C82A000808B5FFF7E5FF054B9B68C3F39F
:1017B000C223044AD35C03F01F03D84008BD00BF16
:1017C00000100240C82A0008F8B504460D46594BDF
:1017D000DB6813F0030F18D0564BDB6803F00303EC
:1017E0000268934202D001263046F8BD002A00F07C
:1017F0009C80504BDB68C3F3021301334268934271
:1018000001D00126F0E7002619E00368022B55D02D
:10181000032B5AD0012B40F08A80464A126812F0FE
:10182000020F5ED04348C26822F07302616801393A
:1018300043EA01131343C3600026002ED4D13D4A6E
:10184000136823F080631360FFF7F8FA0746394BFB
:101850001B6813F0006F05D0FFF7F0FAC31B022BD3
:10186000F5D90326002EBFD1002D3CD131490B699B
:1018700023F0784323F4FE43A068E268D20642EAEC
:10188000002213430B612B4A136843F080631360FB
:10189000FFF7D4FA0546274B1B6813F0006F05D1FC
:1018A000FFF7CCFA401B0228F5D90326002E9BD166
:1018B000204A1369A1690B43136195E71D4A126819
:1018C00012F4806FAED101268EE71A4A126812F424
:1018D000003FA7D1174A126812F4802FA2D1012627
:1018E00082E70126A9E7012D0FD01248026922F0F4
:1018F000C06222F4FE42A16863695B08013B5B069B
:1019000043EA01231A430261BDE70A48026922F44F
:10191000C00222F4FE42A16823695B08013B5B051B
:1019200043EA01231A430261ADE701265CE7012681
:101930005AE700BF001002402DE9F04182B0044692
:10194000036813F4006F26D0C36BB3F5000F06D005
:10195000B3F5400F1DD09BB1012637461DE0AE4ABE
:10196000D36843F48033D3600027AB4AD2F8883081
:1019700023F44003E16B0B43C2F8883000260CE0EF
:1019800000210430FFF720FF07460028EDD006466F
:1019900003E00027E9E700263746236813F4003FF9
:1019A0006BD09D4B9B6D13F0805F4CD19A4B9A6D21
:1019B00042F080529A659B6D03F080530193019B26
:1019C0004FF00108954A136843F480731360FFF7E2
:1019D00035FA0546914B1B6813F4807F05D1FFF75C
:1019E0002DFA401B0228F5D90327002F40D18A4B3E
:1019F000D3F8903013F4407318D0226D9A4212D06D
:101A0000854AD2F8903023F44073D2F8901041F414
:101A10008031C2F89010D2F8901021F48031C2F8D1
:101A20009010C2F8903013F0010F0FD1002F40F04A
:101A3000C980794AD2F8903023F44073216D0B436A
:101A4000C2F8903015E04FF00008BBE7FFF7F6F959
:101A50000546714BD3F8903013F0020FE6D1FFF733
:101A6000EDF9401B41F288339842F2D90327DDE7B4
:101A70003E46B8F1000F40F0A780236813F0010F35
:101A800008D0654AD2F8883023F00303216A0B435B
:101A9000C2F88830236813F0020F08D05E4AD2F8EB
:101AA000883023F00C03616A0B43C2F88830236846
:101AB00013F0200F08D0584AD2F8883023F440633E
:101AC000A16A0B43C2F88830236813F4007F08D062
:101AD000514AD2F8883023F44023616B0B43C2F89B
:101AE0008830236813F4806F08D04B4AD2F88830CE
:101AF00023F44013A16B0B43C2F88830236813F022
:101B0000400F08D0444AD2F8883023F44053E16AA9
:101B10000B43C2F88830236813F4807F08D03E4A14
:101B2000D2F8883023F44033216B0B43C2F888305D
:101B3000236813F4005F0FD0374AD2F8883023F0BF
:101B40004063216C0B43C2F88830236CB3F1006F03
:101B500040D0B3F1806F42D0236813F4802F0FD0B0
:101B60002D4AD2F8883023F04063616C0B43C2F8F1
:101B70008830636CB3F1006F39D0B3F1806F3BD024
:101B8000236813F4804F0CD0234AD2F8883023F016
:101B90004053A16C0B43C2F88830A36CB3F1805F53
:101BA00032D0236813F4004F08D01B4AD2F8883093
:101BB00023F08043E16C0B43C2F88830304602B01A
:101BC000BDE8F0813E4654E7134A936D23F08053FD
:101BD000936552E7D36843F48013D360BCE70121D7
:101BE000201DFFF7F1FD0028B6D00646B4E7D36804
:101BF00043F48013D360C3E70121201DFFF7E4FD08
:101C00000028BDD00646BBE70221201DFFF7DCFD02
:101C10000028C6D00646C4E700100240007000400D
:101C2000F0B583B0002362E085685E000324B44011
:101C300025EA0405CC68B4402C438460456825EA55
:101C40000C054C68C4F300149C402C4344605FE0D6
:101C5000DD08083550F8254003F0070C4FEA8C0CDE
:101C60004FF00F0E0EFA0CFE24EA0E0E0C6904FA69
:101C70000CF444EA0E0440F8254060E0022400E041
:101C8000002404FA0EF42C430CF1020C4C4D45F8E0
:101C90002C404C4CA568D44325EA02064F6817F443
:101CA000801F01D042EA0506464DAE60ED6804EAA9
:101CB00005064F6817F4001F01D042EA0506414DA2
:101CC000EE606D6804EA05064F6817F4003F01D026
:101CD00042EA05063B4D6E602D682C404E6816F4B6
:101CE000803F01D042EA0504364A146001330A6895
:101CF00032FA03F462D04FF0010C0CFA03FC1CEA38
:101D00000202F3D04C6804F00304013C012C8BD98F
:101D10004C6804F00304032C0CD0C4685D004FF041
:101D2000030C0CFA05FC24EA0C0C8C68AC4044EA69
:101D30000C04C4604C6804F00304022C88D00468CE
:101D40004FEA430E4FF0030C0CFA0EFC24EA0C0C85
:101D50004C6804F0030404FA0EF444EA0C04046032
:101D60004C6814F4403FC1D0174C256E45F0010576
:101D70002566246E04F001040194019C4FEA930C43
:101D80000CF102050E4C54F8255003F0030E4FEAF7
:101D90008E0E0F2404FA0EF425EA0405B0F1904FDC
:101DA0003FF46EAF094CA04206D004F58064A04217
:101DB0003FF464AF072464E7012462E703B0F0BD99
:101DC00000000140000401400010024000040048EF
:101DD0000AB181617047816270470000024B186848
:101DE00000F4C060704700BF00700040B0F5007F95
:101DF0000FD01F4B1B6803F4C063B3F5806F34D062
:101E00001B4A136823F4C06343F48063136000200B
:101E10007047174B1B6803F4C063B3F5007F20D0F5
:101E2000134A136823F4C06343F400731360114B27
:101E30001B68322202FB03F30F4AA2FB03239B0C15
:101E4000013300E0013B0A4A526912F4806F01D06D
:101E5000002BF7D1064B5B6913F4806F03D1002090
:101E6000704700207047032070470020704700BF74
:101E7000007000400800002083DE1B43002808DBC0
:101E80000901C9B200F1604000F5614080F800131B
:101E9000704700F00F000901C9B2014B1954704797
:101EA00014ED00E000B500F00700C0F1070CBCF134
:101EB000040F28BF4FF0040C031D062B0FD9C31EBF
:101EC0004FF0FF3E0EFA0CF021EA000199400EFAA5
:101ED00003FE22EA0E0241EA02005DF804FB002341
:101EE000EEE70000074AD36823F4E0631B041B0CF1
:101EF000000200F4E060034343F0BF6343F40033A7
:101F0000D360704700ED00E010B50446054BD8687B
:101F1000C0F30220FFF7C6FF01462046FFF7AEFFE1
:101F200010BD00BF00ED00E00138B0F1807F0BD2A2
:101F30004FF0E0235861054AF02182F82310002079
:101F4000986107221A6170470120704700ED00E098
:101F500000286AD010B50446436A33B94368B3F524
:101F6000827F05D00023C36102E000230361436147
:101F70000023A36294F85D30002B4DD0022384F837
:101F80005D302268136823F040031360E368B3F503
:101F9000E06F47D90022B3F5706F04D0B3F5E06F5E
:101FA00001D00023A362636803F48273A16801F483
:101FB00004410B43216901F002010B43616901F007
:101FC00001010B43A16901F400710B43E16901F0C8
:101FD00038010B43216A01F080010B43A16A01F42F
:101FE000005120680B430360638B03F00403616AB4
:101FF00001F010010B43616B01F008010B43E16834
:1020000001F470610B43216813434B60002020668C
:10201000012384F85D3010BD84F85C302046FEF763
:102020002DFAABE74FF48052B5E70120704700006E
:1020300030B4026A036A23F00103036244688369CF
:1020400023F4803323F073030D681D4322F0020252
:102050008B681343144A904207D002F5A052904275
:1020600003D002F58062904205D123F00803CA68CC
:102070001A4322F004030C4A904207D002F5A05202
:10208000904203D002F58062904205D124F440745E
:102090004A6922438C691443446085614A684263FB
:1020A000036230BC704700BF002C014030B4036AAB
:1020B000026A22F4807202624468C26922F48032A9
:1020C00022F073020D68154323F400738A6843EA13
:1020D0000223104A904207D00F4A90420BD002F5DB
:1020E000806290420FD106E023F40063CA6843EA9D
:1020F000022323F4806324F440544A6944EA02141E
:102100008A6944EA02144460C5614A68C263036292
:1021100030BC7047002C01400040014030B4026ADE
:10212000036A23F4805303624468C36923F0807315
:1021300023F4E6430D6843EA052322F400528D6838
:1021400042EA05320B4DA84207D005F5A055A8423A
:1021500003D005F58065A84204D124F480444D697C
:1021600044EA85144460C3614B680364026230BC76
:10217000704700BF002C014030B4036A026A22F4A9
:10218000803202624468426D22F4803222F0700292
:102190000D682A4323F400338D6843EA05430B4D51
:1021A000A84207D005F5A055A84203D005F58065E3
:1021B000A84204D124F480344D6944EA05244460E3
:1021C00042654A688265036230BC7047002C01405A
:1021D00030B4026A036A23F4801303624468436DD7
:1021E00023F0807323F4E0430D6843EA052322F4CF
:1021F00000128D6842EA05520B4DA84207D005F542
:10220000A055A84203D005F58065A84204D124F466
:1022100080244D6944EA8524446043654B68C36566
:10222000026230BC704700BF002C014010B4036A4A
:10223000046A24F001040462846924F0F00C4CEA7E
:10224000021223F00A030B43826103625DF8044B20
:10225000704710B4036A046A24F0100404628469AD
:1022600024F4704C4CEA023223F0A00343EA011339
:10227000826103625DF8044B7047836823F070034A
:102280000B4343F0070383607047704703681E4A9F
:10229000904202D0B0F1804F03D123F070034A681E
:1022A0001343194A90420AD0B0F1804F07D002F58B
:1022B000A052904203D002F58062904203D123F4F1
:1022C0004073CA68134323F080034A6913430360D1
:1022D0008B68C3620B6883620B4B984207D003F58F
:1022E000A053984203D003F58063984201D10B6953
:1022F000036301234361036913F0010F03D00369F2
:1023000023F0010303617047002C014060B310B556
:10231000044690F83D3013B3022384F83D30214643
:1023200051F8040BFFF7B2FF012384F8483084F81A
:102330003E3084F83F3084F8403084F8413084F8EF
:10234000423084F8433084F8443084F8453084F8CF
:10235000463084F8473084F83D30002010BD80F8C6
:102360003C30FEF7BFF8D7E70120704760B310B5E7
:10237000044690F83D3013B3022384F83D302146E3
:1023800051F8040BFFF782FF012384F8483084F8EA
:102390003E3084F83F3084F8403084F8413084F88F
:1023A000423084F8433084F8443084F8453084F86F
:1023B000463084F8473084F83D30002010BD80F866
:1023C0003C30FFF762FFD7E70120704730B4036A63
:1023D000026A22F0100202624468826922F080726E
:1023E00022F4E6420D6842EA052223F020038D68BC
:1023F00043EA0513104DA84207D0104DA8420BD058
:1024000005F58065A8420FD106E023F08003CD6872
:1024100043EA051323F0400324F440644D6944EA81
:1024200085048D6944EA8504446082614A68826358
:10243000036230BC704700BF002C014000400140E7
:1024400038B590F83C30012B00F0958004460D46DD
:10245000012380F83C30142A00F28880DFE802F083
:102460000B8686861F86868634868686488686867E
:102470005D86868671000068FFF7DAFD2268936941
:1024800043F0080393612268936923F00403936186
:102490002268936929690B439361002067E0006813
:1024A000FFF794FF2268936943F400639361226805
:1024B000936923F48063936122689369296943EAED
:1024C00001239361002052E00068FFF7EFFD2268CE
:1024D000D36943F00803D3612268D36923F004036E
:1024E000D3612268D36929690B43D36100203EE0A0
:1024F0000068FFF713FE2268D36943F40063D361D9
:102500002268D36923F48063D3612268D36929697F
:1025100043EA0123D361002029E00068FFF72CFE85
:102520002268536D43F0080353652268536D23F00E
:10253000040353652268536D29690B4353650020DA
:1025400015E00068FFF744FE2268536D43F4006312
:1025500053652268536D23F4806353652268536D7D
:10256000296943EA01235365002000E0012000238C
:1025700084F83C3038BD0220FCE710B4846824F4B1
:102580007F4C42EA03220A4342EA0C0282605DF871
:10259000044B704790F83C30012B76D010B50446C0
:1025A000012380F83C30022380F83D3002689068B7
:1025B000374B034093600B68602B4CD023D8402BE3
:1025C00054D011D8202B03D00AD80BB1102B05D131
:1025D00019462068FFF751FE002028E0012026E080
:1025E000302BF5D0012022E0502B0AD1CA6849686F
:1025F0002068FFF71BFE50212068FFF73EFE0020F9
:1026000015E0012013E0B3F5805F3AD0B3F5005F29
:1026100014D0702B37D1CB684A6889682068FFF7DF
:10262000ACFF2268936843F0770393600020012396
:1026300084F83D30002384F83C3010BDCB684A68F4
:1026400089682068FFF799FF2268936843F4804304
:1026500093600020EBE7CA6849682068FFF7F9FD3E
:1026600060212068FFF709FE0020E0E7CA6849689A
:102670002068FFF7DBFD40212068FFF7FEFD00200A
:10268000D5E70020D3E70120D1E70220704700BF43
:102690008800FEFF90F83C20012A2FD030B403467A
:1026A000012280F83C20022280F83D200068426828
:1026B0008468134DA8421CD022F070020D682A4392
:1026C00042601A680E48824206D0B2F1804F03D0B1
:1026D00000F5A050824204D124F08004896821438F
:1026E0009160012283F83D20002083F83C0030BC3B
:1026F000704722F470024D682A43DDE702207047DC
:10270000002C014090F83C30012B3BD010B4024625
:10271000012380F83C30CB6823F44073886803437E
:1027200023F480634868034323F400630868034389
:1027300023F480530869034323F400534869034397
:1027400023F48043886A034323F47023886943EAAF
:10275000004310680C4CA04206D04364002082F86D
:102760003C005DF8044B704723F470034C6A43EA65
:10277000045323F08073CC69234323F00073096A68
:102780000B43EAE702207047002C014010B50446D5
:102790008368026913434269134343F400430168A9
:1027A00008683D4A02401A430A60236A43F4006203
:1027B000A369E1690B431343E2681A4321684B683C
:1027C00023F47C5313434B602368344A934207D06D
:1027D000334A93420FD001200023A363E36310BD6B
:1027E000304BD3F8883003F00303032B4DD8DFE8D8
:1027F00003F01B3C24452B4BD3F8883003F00C032B
:102800000C2B44D8DFE803F00743434331434343F1
:10281000194343433A00FEF7B3FF6268530803EBE2
:102820004000B0FBF2F010E0FEF7BCFF6268530816
:1028300003EB4000B0FBF2F007E06368580800F1DA
:10284000F47000F59040B0FBF3F0A0F110024FF6E9
:10285000EF739A421DD883B223F00F03C0F34200F6
:1028600003432268D3600020B6E7FEF735FB6268B9
:10287000530803EB4000B0FBF2F0E6E7636858084A
:1028800000F58030B0FBF3F0DFE70120A4E7012082
:10289000A2E70120A0E700BFF369FFEF0038014085
:1028A00000440040001002402DE9F84305460F4661
:1028B00016469946DDF820802B68DC6937EA040467
:1028C0000CBF01240024B44213D1B8F1FF3FF3D070
:1028D000FEF7B4FAA0EB0900404502D8B8F1000FAA
:1028E000EAD1012385F84930002385F848300320D8
:1028F00000E00020BDE8F88330B583B00446002333
:10290000C364FEF79BFA05462268126812F0080FAE
:102910000CD123681B6813F0040F15D1012384F830
:102920004930002084F8480003B030BD4FF47A737A
:102930000093034600224FF400112046FFF7B4FF36
:102940000028E6D00320EFE74FF47A7300932B467C
:1029500000224FF480012046FFF7A6FF0028DDD0BB
:102960000320E1E748B310B5044690F84930FBB1C5
:10297000022384F849302268136823F001031360AE
:102980002046FFF703FF012811D02268536823F483
:10299000804353602268936823F02A03936022687F
:1029A000136843F0010313602046FFF7A5FF10BD35
:1029B00080F84830FDF76EFEDAE70120704700002E
:1029C000034AD2F8883043F47003C2F88830704765
:1029D00000ED00E0DFF834D0FFF7F2FF0C480D49BE
:1029E0000D4A002302E0D458C4500433C4188C426A
:1029F000F9D30A4A0A4C002301E013600432A242D0
:102A0000FBD300F019F8FDF73EFCFEE700C0002004
:102A10000000002010000020F02A00081000002014
:102A200094010020FEE702440346934200D1704720
:102A300003F8011BF9E7000070B50D4B0D4D5B1B52
:102A40009C100026A64209D100F01AF80A4D0B4B43
:102A50005B1B9C100026A64205D170BD55F8043BB7
:102A600098470136EEE755F8043B98470136F2E700
:102A7000E02A0008E02A0008E02A0008E42A00080A
:102A8000F8B500BFF8BC08BC9E467047F8B500BF5B
:082A9000F8BC08BC9E4670472B
:102A9800A0860100400D0300801A060000350C00D6
:102AA80040420F0080841E0000093D0000127A0099
:102AB8000024F40000366E010048E801006CDC02D6
:102AC80000000000010203040000000000000000F4
:082AD8000102030406070809CE
:082AE000F901000800000000EC
:082AE800D1010008000000000C
:102AF000010000001000000000093D00000000007F
:04000005080029D5F1
:00000001FF
